{
  "contractName": "LandRegistry",
  "abi": [
    {
      "anonymous": false,
      "inputs": [
        {
          "indexed": false,
          "internalType": "uint256",
          "name": "uid",
          "type": "uint256"
        },
        {
          "indexed": false,
          "internalType": "string",
          "name": "name",
          "type": "string"
        },
        {
          "indexed": false,
          "internalType": "uint256",
          "name": "age",
          "type": "uint256"
        },
        {
          "indexed": false,
          "internalType": "string",
          "name": "landHistory",
          "type": "string"
        },
        {
          "indexed": false,
          "internalType": "uint256",
          "name": "timestamp",
          "type": "uint256"
        },
        {
          "indexed": false,
          "internalType": "address",
          "name": "owner",
          "type": "address"
        }
      ],
      "name": "RecordAdded",
      "type": "event"
    },
    {
      "anonymous": false,
      "inputs": [
        {
          "indexed": false,
          "internalType": "uint256",
          "name": "uid",
          "type": "uint256"
        }
      ],
      "name": "RecordRemoved",
      "type": "event"
    },
    {
      "inputs": [],
      "name": "recordCount",
      "outputs": [
        {
          "internalType": "uint256",
          "name": "",
          "type": "uint256"
        }
      ],
      "stateMutability": "view",
      "type": "function"
    },
    {
      "inputs": [
        {
          "internalType": "uint256",
          "name": "",
          "type": "uint256"
        }
      ],
      "name": "records",
      "outputs": [
        {
          "internalType": "string",
          "name": "name",
          "type": "string"
        },
        {
          "internalType": "uint256",
          "name": "age",
          "type": "uint256"
        },
        {
          "internalType": "string",
          "name": "landHistory",
          "type": "string"
        },
        {
          "internalType": "uint256",
          "name": "timestamp",
          "type": "uint256"
        },
        {
          "internalType": "address",
          "name": "owner",
          "type": "address"
        }
      ],
      "stateMutability": "view",
      "type": "function"
    },
    {
      "inputs": [
        {
          "internalType": "uint256",
          "name": "uid",
          "type": "uint256"
        },
        {
          "internalType": "string",
          "name": "name",
          "type": "string"
        },
        {
          "internalType": "uint256",
          "name": "age",
          "type": "uint256"
        },
        {
          "internalType": "string",
          "name": "landHistory",
          "type": "string"
        }
      ],
      "name": "addRecord",
      "outputs": [],
      "stateMutability": "nonpayable",
      "type": "function"
    },
    {
      "inputs": [
        {
          "internalType": "uint256",
          "name": "uid",
          "type": "uint256"
        }
      ],
      "name": "removeRecord",
      "outputs": [],
      "stateMutability": "nonpayable",
      "type": "function"
    },
    {
      "inputs": [
        {
          "internalType": "uint256",
          "name": "uid",
          "type": "uint256"
        }
      ],
      "name": "getRecord",
      "outputs": [
        {
          "internalType": "string",
          "name": "name",
          "type": "string"
        },
        {
          "internalType": "uint256",
          "name": "age",
          "type": "uint256"
        },
        {
          "internalType": "string",
          "name": "landHistory",
          "type": "string"
        },
        {
          "internalType": "uint256",
          "name": "timestamp",
          "type": "uint256"
        },
        {
          "internalType": "address",
          "name": "owner",
          "type": "address"
        }
      ],
      "stateMutability": "view",
      "type": "function"
    }
  ],
  "bytecode": "0x608060405234801561000f575f80fd5b5061111c8061001d5f395ff3fe608060405234801561000f575f80fd5b5060043610610055575f3560e01c806303e9e60914610059578063344610671461008d5780634a8199a7146100c15780638693a683146100dd578063900407bc146100f9575b5f80fd5b610073600480360381019061006e9190610874565b610117565b604051610084959493929190610977565b60405180910390f35b6100a760048036038101906100a29190610874565b610345565b6040516100b8959493929190610977565b60405180910390f35b6100db60048036038101906100d69190610b02565b6104a1565b005b6100f760048036038101906100f29190610874565b610628565b005b6101016107d2565b60405161010e9190610b9e565b60405180910390f35b60605f60605f805f805f8881526020019081526020015f206003015403610173576040517f08c379a000000000000000000000000000000000000000000000000000000000815260040161016a90610c01565b60405180910390fd5b5f805f8881526020019081526020015f206040518060a00160405290815f8201805461019e90610c4c565b80601f01602080910402602001604051908101604052809291908181526020018280546101ca90610c4c565b80156102155780601f106101ec57610100808354040283529160200191610215565b820191905f5260205f20905b8154815290600101906020018083116101f857829003601f168201915b505050505081526020016001820154815260200160028201805461023890610c4c565b80601f016020809104026020016040519081016040528092919081815260200182805461026490610c4c565b80156102af5780601f10610286576101008083540402835291602001916102af565b820191905f5260205f20905b81548152906001019060200180831161029257829003601f168201915b5050505050815260200160038201548152602001600482015f9054906101000a900473ffffffffffffffffffffffffffffffffffffffff1673ffffffffffffffffffffffffffffffffffffffff1673ffffffffffffffffffffffffffffffffffffffff16815250509050805f01518160200151826040015183606001518460800151955095509550955095505091939590929450565b5f602052805f5260405f205f91509050805f01805461036390610c4c565b80601f016020809104026020016040519081016040528092919081815260200182805461038f90610c4c565b80156103da5780601f106103b1576101008083540402835291602001916103da565b820191905f5260205f20905b8154815290600101906020018083116103bd57829003601f168201915b5050505050908060010154908060020180546103f590610c4c565b80601f016020809104026020016040519081016040528092919081815260200182805461042190610c4c565b801561046c5780601f106104435761010080835404028352916020019161046c565b820191905f5260205f20905b81548152906001019060200180831161044f57829003601f168201915b505050505090806003015490806004015f9054906101000a900473ffffffffffffffffffffffffffffffffffffffff16905085565b5f805f8681526020019081526020015f2060030154146104f6576040517f08c379a00000000000000000000000000000000000000000000000000000000081526004016104ed90610cc6565b60405180910390fd5b6040518060a001604052808481526020018381526020018281526020014281526020013373ffffffffffffffffffffffffffffffffffffffff168152505f808681526020019081526020015f205f820151815f0190816105569190610e81565b506020820151816001015560408201518160020190816105769190610e81565b50606082015181600301556080820151816004015f6101000a81548173ffffffffffffffffffffffffffffffffffffffff021916908373ffffffffffffffffffffffffffffffffffffffff16021790555090505060015f8154809291906105dc90610f7d565b91905055507fbf15201d5897a2baa1263c0c34a9b03e121cb18dcf3ece1748c843228ba8a5da84848484423360405161061a96959493929190610fc4565b60405180910390a150505050565b5f805f8381526020019081526020015f20600301540361067d576040517f08c379a000000000000000000000000000000000000000000000000000000000815260040161067490610c01565b60405180910390fd5b3373ffffffffffffffffffffffffffffffffffffffff165f808381526020019081526020015f206004015f9054906101000a900473ffffffffffffffffffffffffffffffffffffffff1673ffffffffffffffffffffffffffffffffffffffff161461071d576040517f08c379a0000000000000000000000000000000000000000000000000000000008152600401610714906110a1565b60405180910390fd5b5f808281526020019081526020015f205f8082015f61073c91906107d8565b600182015f9055600282015f61075291906107d8565b600382015f9055600482015f6101000a81549073ffffffffffffffffffffffffffffffffffffffff0219169055505060015f815480929190610793906110bf565b91905055507ffdeaa7dabefbe0e7e27b990bb4eb0a631568b7c0d94298a8c88990401a66aa00816040516107c79190610b9e565b60405180910390a150565b60015481565b5080546107e490610c4c565b5f825580601f106107f55750610812565b601f0160209004905f5260205f20908101906108119190610815565b5b50565b5b8082111561082c575f815f905550600101610816565b5090565b5f604051905090565b5f80fd5b5f80fd5b5f819050919050565b61085381610841565b811461085d575f80fd5b50565b5f8135905061086e8161084a565b92915050565b5f6020828403121561088957610888610839565b5b5f61089684828501610860565b91505092915050565b5f81519050919050565b5f82825260208201905092915050565b5f5b838110156108d65780820151818401526020810190506108bb565b5f8484015250505050565b5f601f19601f8301169050919050565b5f6108fb8261089f565b61090581856108a9565b93506109158185602086016108b9565b61091e816108e1565b840191505092915050565b61093281610841565b82525050565b5f73ffffffffffffffffffffffffffffffffffffffff82169050919050565b5f61096182610938565b9050919050565b61097181610957565b82525050565b5f60a0820190508181035f83015261098f81886108f1565b905061099e6020830187610929565b81810360408301526109b081866108f1565b90506109bf6060830185610929565b6109cc6080830184610968565b9695505050505050565b5f80fd5b5f80fd5b7f4e487b71000000000000000000000000000000000000000000000000000000005f52604160045260245ffd5b610a14826108e1565b810181811067ffffffffffffffff82111715610a3357610a326109de565b5b80604052505050565b5f610a45610830565b9050610a518282610a0b565b919050565b5f67ffffffffffffffff821115610a7057610a6f6109de565b5b610a79826108e1565b9050602081019050919050565b828183375f83830152505050565b5f610aa6610aa184610a56565b610a3c565b905082815260208101848484011115610ac257610ac16109da565b5b610acd848285610a86565b509392505050565b5f82601f830112610ae957610ae86109d6565b5b8135610af9848260208601610a94565b91505092915050565b5f805f8060808587031215610b1a57610b19610839565b5b5f610b2787828801610860565b945050602085013567ffffffffffffffff811115610b4857610b4761083d565b5b610b5487828801610ad5565b9350506040610b6587828801610860565b925050606085013567ffffffffffffffff811115610b8657610b8561083d565b5b610b9287828801610ad5565b91505092959194509250565b5f602082019050610bb15f830184610929565b92915050565b7f5265636f726420646f6573206e6f7420657869737400000000000000000000005f82015250565b5f610beb6015836108a9565b9150610bf682610bb7565b602082019050919050565b5f6020820190508181035f830152610c1881610bdf565b9050919050565b7f4e487b71000000000000000000000000000000000000000000000000000000005f52602260045260245ffd5b5f6002820490506001821680610c6357607f821691505b602082108103610c7657610c75610c1f565b5b50919050565b7f5265636f726420616c72656164792065786973747300000000000000000000005f82015250565b5f610cb06015836108a9565b9150610cbb82610c7c565b602082019050919050565b5f6020820190508181035f830152610cdd81610ca4565b9050919050565b5f819050815f5260205f209050919050565b5f6020601f8301049050919050565b5f82821b905092915050565b5f60088302610d407fffffffffffffffffffffffffffffffffffffffffffffffffffffffffffffffff82610d05565b610d4a8683610d05565b95508019841693508086168417925050509392505050565b5f819050919050565b5f610d85610d80610d7b84610841565b610d62565b610841565b9050919050565b5f819050919050565b610d9e83610d6b565b610db2610daa82610d8c565b848454610d11565b825550505050565b5f90565b610dc6610dba565b610dd1818484610d95565b505050565b5b81811015610df457610de95f82610dbe565b600181019050610dd7565b5050565b601f821115610e3957610e0a81610ce4565b610e1384610cf6565b81016020851015610e22578190505b610e36610e2e85610cf6565b830182610dd6565b50505b505050565b5f82821c905092915050565b5f610e595f1984600802610e3e565b1980831691505092915050565b5f610e718383610e4a565b9150826002028217905092915050565b610e8a8261089f565b67ffffffffffffffff811115610ea357610ea26109de565b5b610ead8254610c4c565b610eb8828285610df8565b5f60209050601f831160018114610ee9575f8415610ed7578287015190505b610ee18582610e66565b865550610f48565b601f198416610ef786610ce4565b5f5b82811015610f1e57848901518255600182019150602085019450602081019050610ef9565b86831015610f3b5784890151610f37601f891682610e4a565b8355505b6001600288020188555050505b505050505050565b7f4e487b71000000000000000000000000000000000000000000000000000000005f52601160045260245ffd5b5f610f8782610841565b91507fffffffffffffffffffffffffffffffffffffffffffffffffffffffffffffffff8203610fb957610fb8610f50565b5b600182019050919050565b5f60c082019050610fd75f830189610929565b8181036020830152610fe981886108f1565b9050610ff86040830187610929565b818103606083015261100a81866108f1565b90506110196080830185610929565b61102660a0830184610968565b979650505050505050565b7f4f6e6c7920746865206f776e65722063616e2072656d6f7665207468697320725f8201527f65636f7264000000000000000000000000000000000000000000000000000000602082015250565b5f61108b6025836108a9565b915061109682611031565b604082019050919050565b5f6020820190508181035f8301526110b88161107f565b9050919050565b5f6110c982610841565b91505f82036110db576110da610f50565b5b60018203905091905056fea2646970667358221220ac690695ffb3003029f4825be7409ada2737d5e0dc67601acd4a3b4718a592be64736f6c63430008150033",
  "immutableReferences": {},
  "source": "// SPDX-License-Identifier: MIT\npragma solidity ^0.8.0;\n\ncontract LandRegistry {\n    struct Record {\n        string name;\n        uint256 age;\n        string landHistory;\n        uint256 timestamp;\n        address owner;\n    }\n\n    mapping(uint256 => Record) public records;\n    uint256 public recordCount;\n\n    event RecordAdded(uint256 uid, string name, uint256 age, string landHistory, uint256 timestamp, address owner);\n    event RecordRemoved(uint256 uid);\n\n    function addRecord(uint256 uid, string memory name, uint256 age, string memory landHistory) public {\n        require(records[uid].timestamp == 0, \"Record already exists\");\n\n        records[uid] = Record({\n            name: name,\n            age: age,\n            landHistory: landHistory,\n            timestamp: block.timestamp,\n            owner: msg.sender\n        });\n\n        recordCount++;\n\n        emit RecordAdded(uid, name, age, landHistory, block.timestamp, msg.sender);\n    }\n\n    function removeRecord(uint256 uid) public {\n        require(records[uid].timestamp != 0, \"Record does not exist\");\n        require(records[uid].owner == msg.sender, \"Only the owner can remove this record\");\n\n        delete records[uid];\n        recordCount--;\n\n        emit RecordRemoved(uid);\n    }\n\n    function getRecord(uint256 uid) public view returns (string memory name, uint256 age, string memory landHistory, uint256 timestamp, address owner) {\n        require(records[uid].timestamp != 0, \"Record does not exist\");\n\n        Record memory record = records[uid];\n        return (record.name, record.age, record.landHistory, record.timestamp, record.owner);\n    }\n}\n",
  "sourcePath": "/Users/mirshahzadmubeen/Desktop/Developer/land-Record-System-code/contracts/LandRegistry.sol",
  "compiler": {
    "name": "solc",
    "version": "0.8.21+commit.d9974bed.Emscripten.clang"
  },
  "schemaVersion": "3.4.16",
  "updatedAt": "2024-06-22T12:21:15.160Z",
  "devdoc": {
    "kind": "dev",
    "methods": {},
    "version": 1
  },
  "userdoc": {
    "kind": "user",
    "methods": {},
    "version": 1
  }
}